:100000000C9434000C943E000C943E000C943E0082
:100010000C943E000C943E000C943E000C943E0068
:100020000C943E000C943E000C943E000C943E0058
:100030000C943E000C943E000C943E000C943E0048
:100040000C943E000C943E000C943E000C943E0038
:100050000C943E000C943E000C943E000C943E0028
:100060000C943E000C943E0011241FBECFEFD8E04C
:10007000DEBFCDBF0E9440000C9454000C940000E1
:10008000209A52985A9A80E04A9B07C0811103C077
:10009000289A81E002C0289880E0EFE3FCE93197DC
:0C00A000F1F700C00000F0CFF894FFCF93
:00000001FF
